:100000000AC008C007C006C005C004C003C002C0C3
:1000100001C000C01895112410E0A0E6B0E0EAE0AD
:10002000F2E002C005900D92AA36B107D9F7789494
:1000300087B3836087BB54D080E456D04CD050D077
:1000400089E852D048D0B1D08CEC94D08EE492D0D4
:100050008BE490D086E48ED08FE18CD0A6D0DAE00D
:10006000A4D08CEC87D084E485D02FEF8DEE92E085
:10007000215080409040E1F700C0000096D08CEC09
:1000800079D08EEB77D050D0C82F4ED0982F8C2FB0
:1000900024E0959587952A95E1F7C82F21D080EC2B
:1000A00023D080E021D08C2F6D2F96D0C92F6D2FBB
:1000B00093D0E92F990FFF0BE05AFF4F808114D0A6
:1000C000EC2FCC0FFF0BE05AFF4F80810DD089E35E
:1000D0000BD001D0C5CFC198C098C19AC09A0895DD
:1000E000C19AC09AC098089598E0C198282F30E02E
:1000F00080FF02C0C09A01C0C09835952795822F15
:1001000023E02A95F1F70000C19A23E02A95F1F740
:100110000000915051F7C198B898C19A83E08A9530
:10012000F1F70000B89A089530E020E080E041E067
:1001300050E0BA9A93E09A95F1F70000BA989DE2E0
:100140009A95F1F7B29905C090E99A95F1F70000F8
:100150000BC090E99A95F1F70000BA01022E01C098
:10016000660F0A94EAF7862B2F5F3F4F2830310540
:1001700001F7089530E020E090E0BA9A43E04A9514
:10018000F1F70000AC01022E02C0559547950A9484
:10019000E2F740FDBA9840EC4A95F1F7BA982F5F24
:1001A0003F4F2830310549F70895BA9AC2988FE732
:1001B00094E00197F1F700C00000BA9890EE9A958C
:1001C000F1F786B3E8EDF3E03197F1F782FB88278A
:1001D00080F991E08927089587FB082E062687FD80
:1001E000819567FD619505D00EF4919507FC819589
:1001F0000895991B79E004C0991F961708F0961B83
:0A020000881F7A95C9F780950895CC
:0A020A003F065B4F666D7D077F6FB6
:00000001FF
